{
  "_format": "hh-sol-artifact-1",
  "contractName": "House",
  "sourceName": "contracts/House.sol",
  "abi": [
    {
      "inputs": [
        {
          "internalType": "address",
          "name": "_vrfCoordinator",
          "type": "address"
        },
        {
          "internalType": "address",
          "name": "_link",
          "type": "address"
        },
        {
          "internalType": "bytes32",
          "name": "_keyHash",
          "type": "bytes32"
        },
        {
          "internalType": "string[]",
          "name": "_cardNames",
          "type": "string[]"
        },
        {
          "internalType": "string[]",
          "name": "_cardImageURIs",
          "type": "string[]"
        },
        {
          "internalType": "string[]",
          "name": "_cardNumbers",
          "type": "string[]"
        },
        {
          "internalType": "string[]",
          "name": "_cardSuits",
          "type": "string[]"
        },
        {
          "internalType": "string[]",
          "name": "_setImageURIs",
          "type": "string[]"
        },
        {
          "internalType": "string",
          "name": "_deckImage",
          "type": "string"
        }
      ],
      "stateMutability": "nonpayable",
      "type": "constructor"
    },
    {
      "anonymous": false,
      "inputs": [
        {
          "indexed": true,
          "internalType": "address",
          "name": "owner",
          "type": "address"
        },
        {
          "indexed": true,
          "internalType": "address",
          "name": "approved",
          "type": "address"
        },
        {
          "indexed": true,
          "internalType": "uint256",
          "name": "tokenId",
          "type": "uint256"
        }
      ],
      "name": "Approval",
      "type": "event"
    },
    {
      "anonymous": false,
      "inputs": [
        {
          "indexed": true,
          "internalType": "address",
          "name": "owner",
          "type": "address"
        },
        {
          "indexed": true,
          "internalType": "address",
          "name": "operator",
          "type": "address"
        },
        {
          "indexed": false,
          "internalType": "bool",
          "name": "approved",
          "type": "bool"
        }
      ],
      "name": "ApprovalForAll",
      "type": "event"
    },
    {
      "anonymous": false,
      "inputs": [
        {
          "indexed": false,
          "internalType": "address",
          "name": "sender",
          "type": "address"
        },
        {
          "indexed": false,
          "internalType": "uint256",
          "name": "tokenId",
          "type": "uint256"
        },
        {
          "indexed": false,
          "internalType": "uint256",
          "name": "cardIndex",
          "type": "uint256"
        }
      ],
      "name": "CardNFTMinted",
      "type": "event"
    },
    {
      "anonymous": false,
      "inputs": [
        {
          "indexed": false,
          "internalType": "address",
          "name": "sender",
          "type": "address"
        },
        {
          "indexed": false,
          "internalType": "uint256",
          "name": "tokenId",
          "type": "uint256"
        }
      ],
      "name": "DeckNFTMinted",
      "type": "event"
    },
    {
      "anonymous": false,
      "inputs": [
        {
          "indexed": false,
          "internalType": "address",
          "name": "sender",
          "type": "address"
        },
        {
          "indexed": false,
          "internalType": "uint256",
          "name": "tokenId",
          "type": "uint256"
        }
      ],
      "name": "SetNFTMinted",
      "type": "event"
    },
    {
      "anonymous": false,
      "inputs": [
        {
          "indexed": true,
          "internalType": "address",
          "name": "from",
          "type": "address"
        },
        {
          "indexed": true,
          "internalType": "address",
          "name": "to",
          "type": "address"
        },
        {
          "indexed": true,
          "internalType": "uint256",
          "name": "tokenId",
          "type": "uint256"
        }
      ],
      "name": "Transfer",
      "type": "event"
    },
    {
      "inputs": [
        {
          "internalType": "address",
          "name": "to",
          "type": "address"
        },
        {
          "internalType": "uint256",
          "name": "tokenId",
          "type": "uint256"
        }
      ],
      "name": "approve",
      "outputs": [],
      "stateMutability": "nonpayable",
      "type": "function"
    },
    {
      "inputs": [
        {
          "internalType": "address",
          "name": "owner",
          "type": "address"
        }
      ],
      "name": "balanceOf",
      "outputs": [
        {
          "internalType": "uint256",
          "name": "",
          "type": "uint256"
        }
      ],
      "stateMutability": "view",
      "type": "function"
    },
    {
      "inputs": [
        {
          "internalType": "uint256",
          "name": "tokenId",
          "type": "uint256"
        }
      ],
      "name": "getApproved",
      "outputs": [
        {
          "internalType": "address",
          "name": "",
          "type": "address"
        }
      ],
      "stateMutability": "view",
      "type": "function"
    },
    {
      "inputs": [
        {
          "internalType": "address",
          "name": "owner",
          "type": "address"
        },
        {
          "internalType": "address",
          "name": "operator",
          "type": "address"
        }
      ],
      "name": "isApprovedForAll",
      "outputs": [
        {
          "internalType": "bool",
          "name": "",
          "type": "bool"
        }
      ],
      "stateMutability": "view",
      "type": "function"
    },
    {
      "inputs": [
        {
          "internalType": "uint256",
          "name": "cardIndex",
          "type": "uint256"
        }
      ],
      "name": "mint",
      "outputs": [],
      "stateMutability": "nonpayable",
      "type": "function"
    },
    {
      "inputs": [],
      "name": "mintCard",
      "outputs": [
        {
          "internalType": "bytes32",
          "name": "",
          "type": "bytes32"
        }
      ],
      "stateMutability": "nonpayable",
      "type": "function"
    },
    {
      "inputs": [
        {
          "internalType": "uint256[]",
          "name": "tokenIdList",
          "type": "uint256[]"
        }
      ],
      "name": "mintDeck",
      "outputs": [],
      "stateMutability": "nonpayable",
      "type": "function"
    },
    {
      "inputs": [
        {
          "internalType": "uint256[]",
          "name": "tokenIdList",
          "type": "uint256[]"
        }
      ],
      "name": "mintSet",
      "outputs": [],
      "stateMutability": "nonpayable",
      "type": "function"
    },
    {
      "inputs": [],
      "name": "name",
      "outputs": [
        {
          "internalType": "string",
          "name": "",
          "type": "string"
        }
      ],
      "stateMutability": "view",
      "type": "function"
    },
    {
      "inputs": [
        {
          "internalType": "uint256",
          "name": "tokenId",
          "type": "uint256"
        }
      ],
      "name": "ownerOf",
      "outputs": [
        {
          "internalType": "address",
          "name": "",
          "type": "address"
        }
      ],
      "stateMutability": "view",
      "type": "function"
    },
    {
      "inputs": [
        {
          "internalType": "bytes32",
          "name": "requestId",
          "type": "bytes32"
        },
        {
          "internalType": "uint256",
          "name": "randomness",
          "type": "uint256"
        }
      ],
      "name": "rawFulfillRandomness",
      "outputs": [],
      "stateMutability": "nonpayable",
      "type": "function"
    },
    {
      "inputs": [
        {
          "internalType": "address",
          "name": "from",
          "type": "address"
        },
        {
          "internalType": "address",
          "name": "to",
          "type": "address"
        },
        {
          "internalType": "uint256",
          "name": "tokenId",
          "type": "uint256"
        }
      ],
      "name": "safeTransferFrom",
      "outputs": [],
      "stateMutability": "nonpayable",
      "type": "function"
    },
    {
      "inputs": [
        {
          "internalType": "address",
          "name": "from",
          "type": "address"
        },
        {
          "internalType": "address",
          "name": "to",
          "type": "address"
        },
        {
          "internalType": "uint256",
          "name": "tokenId",
          "type": "uint256"
        },
        {
          "internalType": "bytes",
          "name": "_data",
          "type": "bytes"
        }
      ],
      "name": "safeTransferFrom",
      "outputs": [],
      "stateMutability": "nonpayable",
      "type": "function"
    },
    {
      "inputs": [
        {
          "internalType": "address",
          "name": "operator",
          "type": "address"
        },
        {
          "internalType": "bool",
          "name": "approved",
          "type": "bool"
        }
      ],
      "name": "setApprovalForAll",
      "outputs": [],
      "stateMutability": "nonpayable",
      "type": "function"
    },
    {
      "inputs": [
        {
          "internalType": "bytes4",
          "name": "interfaceId",
          "type": "bytes4"
        }
      ],
      "name": "supportsInterface",
      "outputs": [
        {
          "internalType": "bool",
          "name": "",
          "type": "bool"
        }
      ],
      "stateMutability": "view",
      "type": "function"
    },
    {
      "inputs": [],
      "name": "symbol",
      "outputs": [
        {
          "internalType": "string",
          "name": "",
          "type": "string"
        }
      ],
      "stateMutability": "view",
      "type": "function"
    },
    {
      "inputs": [
        {
          "internalType": "uint256",
          "name": "_tokenId",
          "type": "uint256"
        }
      ],
      "name": "tokenURI",
      "outputs": [
        {
          "internalType": "string",
          "name": "",
          "type": "string"
        }
      ],
      "stateMutability": "view",
      "type": "function"
    },
    {
      "inputs": [
        {
          "internalType": "address",
          "name": "from",
          "type": "address"
        },
        {
          "internalType": "address",
          "name": "to",
          "type": "address"
        },
        {
          "internalType": "uint256",
          "name": "tokenId",
          "type": "uint256"
        }
      ],
      "name": "transferFrom",
      "outputs": [],
      "stateMutability": "nonpayable",
      "type": "function"
    }
  ],
  "bytecode": "0x60c06040523480156200001157600080fd5b5060405162006adf38038062006adf8339818101604052810190620000379190620007d3565b88886040518060400160405280600581526020017f486f7573650000000000000000000000000000000000000000000000000000008152506040518060400160405280600581526020017f484f5553450000000000000000000000000000000000000000000000000000008152508160009080519060200190620000bd9291906200049f565b508060019080519060200190620000d69291906200049f565b5050508173ffffffffffffffffffffffffffffffffffffffff1660a08173ffffffffffffffffffffffffffffffffffffffff1660601b815250508073ffffffffffffffffffffffffffffffffffffffff1660808173ffffffffffffffffffffffffffffffffffffffff1660601b81525050505060005b86518110156200040c576000600567ffffffffffffffff8111156200019a577f4e487b7100000000000000000000000000000000000000000000000000000000600052604160045260246000fd5b604051908082528060200260200182016040528015620001c95781602001602082028036833780820191505090505b50905060086040518060e001604052808481526020018a858151811062000219577f4e487b7100000000000000000000000000000000000000000000000000000000600052603260045260246000fd5b6020026020010151815260200187858151811062000260577f4e487b7100000000000000000000000000000000000000000000000000000000600052603260045260246000fd5b60200260200101518152602001888581518110620002a7577f4e487b7100000000000000000000000000000000000000000000000000000000600052603260045260246000fd5b60200260200101518152602001898581518110620002ee577f4e487b7100000000000000000000000000000000000000000000000000000000600052603260045260246000fd5b602002602001015181526020016200031260076200047b60201b62001d9e1760201c565b81526020018381525090806001815401808255809150506001900390600052602060002090600702016000909190919091506000820151816000015560208201518160010190805190602001906200036c9291906200049f565b5060408201518160020190805190602001906200038b9291906200049f565b506060820151816003019080519060200190620003aa9291906200049f565b506080820151816004019080519060200190620003c99291906200049f565b5060a0820151816005015560c0820151816006019080519060200190620003f292919062000530565b505050508080620004039062000aba565b9150506200014c565b506200042460076200048960201b62001dac1760201c565b86600b8190555067016345785d8a0000600c8190555081600d90805190602001906200045292919062000582565b5080600e90805190602001906200046b9291906200049f565b5050505050505050505062000bda565b600081600001549050919050565b6001816000016000828254019250508190555050565b828054620004ad9062000a4e565b90600052602060002090601f016020900481019282620004d157600085556200051d565b82601f10620004ec57805160ff19168380011785556200051d565b828001600101855582156200051d579182015b828111156200051c578251825591602001919060010190620004ff565b5b5090506200052c9190620005e9565b5090565b8280548282559060005260206000209081019282156200056f579160200282015b828111156200056e57825182559160200191906001019062000551565b5b5090506200057e9190620005e9565b5090565b828054828255906000526020600020908101928215620005d6579160200282015b82811115620005d5578251829080519060200190620005c49291906200049f565b5091602001919060010190620005a3565b5b509050620005e5919062000608565b5090565b5b8082111562000604576000816000905550600101620005ea565b5090565b5b808211156200062c576000818162000622919062000630565b5060010162000609565b5090565b5080546200063e9062000a4e565b6000825580601f1062000652575062000673565b601f016020900490600052602060002090810190620006729190620005e9565b5b50565b60006200068d62000687846200096b565b62000942565b90508083825260208201905082856020860282011115620006ad57600080fd5b60005b85811015620006fc57815167ffffffffffffffff811115620006d157600080fd5b808601620006e08982620007a6565b85526020850194506020840193505050600181019050620006b0565b5050509392505050565b60006200071d62000717846200099a565b62000942565b9050828152602081018484840111156200073657600080fd5b6200074384828562000a18565b509392505050565b6000815190506200075c8162000ba6565b92915050565b600082601f8301126200077457600080fd5b81516200078684826020860162000676565b91505092915050565b600081519050620007a08162000bc0565b92915050565b600082601f830112620007b857600080fd5b8151620007ca84826020860162000706565b91505092915050565b60008060008060008060008060006101208a8c031215620007f357600080fd5b6000620008038c828d016200074b565b9950506020620008168c828d016200074b565b9850506040620008298c828d016200078f565b97505060608a015167ffffffffffffffff8111156200084757600080fd5b620008558c828d0162000762565b96505060808a015167ffffffffffffffff8111156200087357600080fd5b620008818c828d0162000762565b95505060a08a015167ffffffffffffffff8111156200089f57600080fd5b620008ad8c828d0162000762565b94505060c08a015167ffffffffffffffff811115620008cb57600080fd5b620008d98c828d0162000762565b93505060e08a015167ffffffffffffffff811115620008f757600080fd5b620009058c828d0162000762565b9250506101008a015167ffffffffffffffff8111156200092457600080fd5b620009328c828d01620007a6565b9150509295985092959850929598565b60006200094e62000961565b90506200095c828262000a84565b919050565b6000604051905090565b600067ffffffffffffffff82111562000989576200098862000b66565b5b602082029050602081019050919050565b600067ffffffffffffffff821115620009b857620009b762000b66565b5b620009c38262000b95565b9050602081019050919050565b6000620009dd82620009ee565b9050919050565b6000819050919050565b600073ffffffffffffffffffffffffffffffffffffffff82169050919050565b6000819050919050565b60005b8381101562000a3857808201518184015260208101905062000a1b565b8381111562000a48576000848401525b50505050565b6000600282049050600182168062000a6757607f821691505b6020821081141562000a7e5762000a7d62000b37565b5b50919050565b62000a8f8262000b95565b810181811067ffffffffffffffff8211171562000ab15762000ab062000b66565b5b80604052505050565b600062000ac78262000a0e565b91507fffffffffffffffffffffffffffffffffffffffffffffffffffffffffffffffff82141562000afd5762000afc62000b08565b5b600182019050919050565b7f4e487b7100000000000000000000000000000000000000000000000000000000600052601160045260246000fd5b7f4e487b7100000000000000000000000000000000000000000000000000000000600052602260045260246000fd5b7f4e487b7100000000000000000000000000000000000000000000000000000000600052604160045260246000fd5b6000601f19601f8301169050919050565b62000bb181620009d0565b811462000bbd57600080fd5b50565b62000bcb81620009e4565b811462000bd757600080fd5b50565b60805160601c60a05160601c615ecb62000c14600039600081816109e801526122de01526000818161070901526122a20152615ecb6000f3fe608060405234801561001057600080fd5b50600436106101165760003560e01c806394985ddd116100a2578063adf5950e11610071578063adf5950e146102dd578063b7cd52d2146102f9578063b88d4fde14610315578063c87b56dd14610331578063e985e9c51461036157610116565b806394985ddd1461026b57806395d89b4114610287578063a0712d68146102a5578063a22cb465146102c157610116565b806323b872dd116100e957806323b872dd146101b55780633993c220146101d157806342842e0e146101ef5780636352211e1461020b57806370a082311461023b57610116565b806301ffc9a71461011b57806306fdde031461014b578063081812fc14610169578063095ea7b314610199575b600080fd5b61013560048036038101906101309190614774565b610391565b6040516101429190614f44565b60405180910390f35b610153610473565b6040516101609190614fe8565b60405180910390f35b610183600480360381019061017e91906147c6565b610505565b6040516101909190614e3f565b60405180910390f35b6101b360048036038101906101ae9190614692565b61058a565b005b6101cf60048036038101906101ca919061458c565b6106a2565b005b6101d9610702565b6040516101e69190614f5f565b60405180910390f35b6102096004803603810190610204919061458c565b61085c565b005b610225600480360381019061022091906147c6565b61087c565b6040516102329190614e3f565b60405180910390f35b61025560048036038101906102509190614527565b61092e565b604051610262919061526a565b60405180910390f35b61028560048036038101906102809190614738565b6109e6565b005b61028f610a82565b60405161029c9190614fe8565b60405180910390f35b6102bf60048036038101906102ba91906147c6565b610b14565b005b6102db60048036038101906102d69190614656565b6110fc565b005b6102f760048036038101906102f291906146ce565b611112565b005b610313600480360381019061030e91906146ce565b6113b6565b005b61032f600480360381019061032a91906145db565b611864565b005b61034b600480360381019061034691906147c6565b6118c6565b6040516103589190614fe8565b60405180910390f35b61037b60048036038101906103769190614550565b611d0a565b6040516103889190614f44565b60405180910390f35b60007f80ac58cd000000000000000000000000000000000000000000000000000000007bffffffffffffffffffffffffffffffffffffffffffffffffffffffff1916827bffffffffffffffffffffffffffffffffffffffffffffffffffffffff1916148061045c57507f5b5e139f000000000000000000000000000000000000000000000000000000007bffffffffffffffffffffffffffffffffffffffffffffffffffffffff1916827bffffffffffffffffffffffffffffffffffffffffffffffffffffffff1916145b8061046c575061046b82611dc2565b5b9050919050565b6060600080546104829061551f565b80601f01602080910402602001604051908101604052809291908181526020018280546104ae9061551f565b80156104fb5780601f106104d0576101008083540402835291602001916104fb565b820191906000526020600020905b8154815290600101906020018083116104de57829003601f168201915b5050505050905090565b600061051082611e2c565b61054f576040517f08c379a00000000000000000000000000000000000000000000000000000000081526004016105469061518a565b60405180910390fd5b6004600083815260200190815260200160002060009054906101000a900473ffffffffffffffffffffffffffffffffffffffff169050919050565b60006105958261087c565b90508073ffffffffffffffffffffffffffffffffffffffff168373ffffffffffffffffffffffffffffffffffffffff161415610606576040517f08c379a00000000000000000000000000000000000000000000000000000000081526004016105fd906151ca565b60405180910390fd5b8073ffffffffffffffffffffffffffffffffffffffff16610625611e98565b73ffffffffffffffffffffffffffffffffffffffff16148061065457506106538161064e611e98565b611d0a565b5b610693576040517f08c379a000000000000000000000000000000000000000000000000000000000815260040161068a9061510a565b60405180910390fd5b61069d8383611ea0565b505050565b6106b36106ad611e98565b82611f59565b6106f2576040517f08c379a00000000000000000000000000000000000000000000000000000000081526004016106e99061522a565b60405180910390fd5b6106fd838383612037565b505050565b6000600c547f000000000000000000000000000000000000000000000000000000000000000073ffffffffffffffffffffffffffffffffffffffff166370a08231306040518263ffffffff1660e01b81526004016107609190614e3f565b60206040518083038186803b15801561077857600080fd5b505afa15801561078c573d6000803e3d6000fd5b505050506040513d601f19601f820116820180604052508101906107b091906147ef565b10156107f1576040517f08c379a00000000000000000000000000000000000000000000000000000000081526004016107e8906150ea565b60405180910390fd5b6000610801600b54600c5461229e565b905033600a600083815260200190815260200160002060006101000a81548173ffffffffffffffffffffffffffffffffffffffff021916908373ffffffffffffffffffffffffffffffffffffffff1602179055508091505090565b61087783838360405180602001604052806000815250611864565b505050565b6000806002600084815260200190815260200160002060009054906101000a900473ffffffffffffffffffffffffffffffffffffffff169050600073ffffffffffffffffffffffffffffffffffffffff168173ffffffffffffffffffffffffffffffffffffffff161415610925576040517f08c379a000000000000000000000000000000000000000000000000000000000815260040161091c9061514a565b60405180910390fd5b80915050919050565b60008073ffffffffffffffffffffffffffffffffffffffff168273ffffffffffffffffffffffffffffffffffffffff16141561099f576040517f08c379a00000000000000000000000000000000000000000000000000000000081526004016109969061512a565b60405180910390fd5b600360008373ffffffffffffffffffffffffffffffffffffffff1673ffffffffffffffffffffffffffffffffffffffff168152602001908152602001600020549050919050565b7f000000000000000000000000000000000000000000000000000000000000000073ffffffffffffffffffffffffffffffffffffffff163373ffffffffffffffffffffffffffffffffffffffff1614610a74576040517f08c379a0000000000000000000000000000000000000000000000000000000008152600401610a6b906151aa565b60405180910390fd5b610a7e8282612400565b5050565b606060018054610a919061551f565b80601f0160208091040260200160405190810160405280929190818152602001828054610abd9061551f565b8015610b0a5780601f10610adf57610100808354040283529160200191610b0a565b820191906000526020600020905b815481529060010190602001808311610aed57829003601f168201915b5050505050905090565b6000610b206007611d9e565b90506000600567ffffffffffffffff811115610b65577f4e487b7100000000000000000000000000000000000000000000000000000000600052604160045260246000fd5b604051908082528060200260200182016040528015610b935781602001602082028036833780820191505090505b509050600181600081518110610bd2577f4e487b7100000000000000000000000000000000000000000000000000000000600052603260045260246000fd5b602002602001018181525050600281600181518110610c1a577f4e487b7100000000000000000000000000000000000000000000000000000000600052603260045260246000fd5b602002602001018181525050600381600281518110610c62577f4e487b7100000000000000000000000000000000000000000000000000000000600052603260045260246000fd5b6020026020010181815250506040518060e0016040528084815260200160088581548110610cb9577f4e487b7100000000000000000000000000000000000000000000000000000000600052603260045260246000fd5b90600052602060002090600702016001018054610cd59061551f565b80601f0160208091040260200160405190810160405280929190818152602001828054610d019061551f565b8015610d4e5780601f10610d2357610100808354040283529160200191610d4e565b820191906000526020600020905b815481529060010190602001808311610d3157829003601f168201915b5050505050815260200160088581548110610d92577f4e487b7100000000000000000000000000000000000000000000000000000000600052603260045260246000fd5b90600052602060002090600702016002018054610dae9061551f565b80601f0160208091040260200160405190810160405280929190818152602001828054610dda9061551f565b8015610e275780601f10610dfc57610100808354040283529160200191610e27565b820191906000526020600020905b815481529060010190602001808311610e0a57829003601f168201915b5050505050815260200160088581548110610e6b577f4e487b7100000000000000000000000000000000000000000000000000000000600052603260045260246000fd5b90600052602060002090600702016003018054610e879061551f565b80601f0160208091040260200160405190810160405280929190818152602001828054610eb39061551f565b8015610f005780601f10610ed557610100808354040283529160200191610f00565b820191906000526020600020905b815481529060010190602001808311610ee357829003601f168201915b5050505050815260200160088581548110610f44577f4e487b7100000000000000000000000000000000000000000000000000000000600052603260045260246000fd5b90600052602060002090600702016004018054610f609061551f565b80601f0160208091040260200160405190810160405280929190818152602001828054610f8c9061551f565b8015610fd95780601f10610fae57610100808354040283529160200191610fd9565b820191906000526020600020905b815481529060010190602001808311610fbc57829003601f168201915b505050505081526020018381526020018281525060096000848152602001908152602001600020600082015181600001556020820151816001019080519060200190611026929190614291565b506040820151816002019080519060200190611043929190614291565b506060820151816003019080519060200190611060929190614291565b50608082015181600401908051906020019061107d929190614291565b5060a0820151816005015560c08201518160060190805190602001906110a4929190614317565b509050506110b23383612ab3565b6110bc6007611dac565b7f10996d3735163ec820e09da0f6d7407380b7fa3f48b83fbc0e7216aa1d6d5df53383856040516110ef93929190614f0d565b60405180910390a1505050565b61110e611107611e98565b8383612ad1565b5050565b600061111f826001612c3e565b9050600061112d6007611d9e565b90506111393382612ab3565b6040518060e00160405280600081526020016040518060400160405280600481526020017f4465636b000000000000000000000000000000000000000000000000000000008152508152602001604051806020016040528060008152508152602001604051806020016040528060008152508152602001600e80546111bd9061551f565b80601f01602080910402602001604051908101604052809291908181526020018280546111e99061551f565b80156112365780601f1061120b57610100808354040283529160200191611236565b820191906000526020600020905b81548152906001019060200180831161121957829003601f168201915b505050505081526020018281526020018381525060096000838152602001908152602001600020600082015181600001556020820151816001019080519060200190611283929190614291565b5060408201518160020190805190602001906112a0929190614291565b5060608201518160030190805190602001906112bd929190614291565b5060808201518160040190805190602001906112da929190614291565b5060a0820151816005015560c0820151816006019080519060200190611301929190614317565b5090505061130f6007611dac565b7fdc3261a94a9111330d46f27079a04d200fa8a2db8482fb94c6680e022ecb6b113382604051611340929190614ea6565b60405180910390a160005b83518110156113b05761139d848281518110611390577f4e487b7100000000000000000000000000000000000000000000000000000000600052603260045260246000fd5b6020026020010151613903565b80806113a890615582565b91505061134b565b50505050565b60006113c3826000612c3e565b905060006113d16007611d9e565b9050600061141f84600081518110611412577f4e487b7100000000000000000000000000000000000000000000000000000000600052603260045260246000fd5b6020026020010151613a20565b905061142b3383612ab3565b6040518060e00160405280828152602001600960008760008151811061147a577f4e487b7100000000000000000000000000000000000000000000000000000000600052603260045260246000fd5b60200260200101518152602001908152602001600020600201805461149e9061551f565b80601f01602080910402602001604051908101604052809291908181526020018280546114ca9061551f565b80156115175780601f106114ec57610100808354040283529160200191611517565b820191906000526020600020905b8154815290600101906020018083116114fa57829003601f168201915b50505050508152602001600960008760008151811061155f577f4e487b7100000000000000000000000000000000000000000000000000000000600052603260045260246000fd5b6020026020010151815260200190815260200160002060020180546115839061551f565b80601f01602080910402602001604051908101604052809291908181526020018280546115af9061551f565b80156115fc5780601f106115d1576101008083540402835291602001916115fc565b820191906000526020600020905b8154815290600101906020018083116115df57829003601f168201915b50505050508152602001604051806020016040528060008152508152602001600d8381548110611655577f4e487b7100000000000000000000000000000000000000000000000000000000600052603260045260246000fd5b90600052602060002001805461166a9061551f565b80601f01602080910402602001604051908101604052809291908181526020018280546116969061551f565b80156116e35780601f106116b8576101008083540402835291602001916116e3565b820191906000526020600020905b8154815290600101906020018083116116c657829003601f168201915b505050505081526020018381526020018481525060096000848152602001908152602001600020600082015181600001556020820151816001019080519060200190611730929190614291565b50604082015181600201908051906020019061174d929190614291565b50606082015181600301908051906020019061176a929190614291565b506080820151816004019080519060200190611787929190614291565b5060a0820151816005015560c08201518160060190805190602001906117ae929190614317565b509050506117bc6007611dac565b7f7e541de560dd23e2b013fbfcfb842f21a151d00fd7b7973e61e146215c52f73e33836040516117ed929190614ea6565b60405180910390a160005b845181101561185d5761184a85828151811061183d577f4e487b7100000000000000000000000000000000000000000000000000000000600052603260045260246000fd5b6020026020010151613903565b808061185590615582565b9150506117f8565b5050505050565b61187561186f611e98565b83611f59565b6118b4576040517f08c379a00000000000000000000000000000000000000000000000000000000081526004016118ab9061522a565b60405180910390fd5b6118c084848484613a62565b50505050565b60606000600960008481526020019081526020016000206040518060e0016040529081600082015481526020016001820180546119029061551f565b80601f016020809104026020016040519081016040528092919081815260200182805461192e9061551f565b801561197b5780601f106119505761010080835404028352916020019161197b565b820191906000526020600020905b81548152906001019060200180831161195e57829003601f168201915b505050505081526020016002820180546119949061551f565b80601f01602080910402602001604051908101604052809291908181526020018280546119c09061551f565b8015611a0d5780601f106119e257610100808354040283529160200191611a0d565b820191906000526020600020905b8154815290600101906020018083116119f057829003601f168201915b50505050508152602001600382018054611a269061551f565b80601f0160208091040260200160405190810160405280929190818152602001828054611a529061551f565b8015611a9f5780601f10611a7457610100808354040283529160200191611a9f565b820191906000526020600020905b815481529060010190602001808311611a8257829003601f168201915b50505050508152602001600482018054611ab89061551f565b80601f0160208091040260200160405190810160405280929190818152602001828054611ae49061551f565b8015611b315780601f10611b0657610100808354040283529160200191611b31565b820191906000526020600020905b815481529060010190602001808311611b1457829003601f168201915b505050505081526020016005820154815260200160068201805480602002602001604051908101604052809291908181526020018280548015611b9357602002820191906000526020600020905b815481526020019060010190808311611b7f575b50505050508152505090506000611cd982602001518360800151611bba8560000151613abe565b85604001518660600151611c128860c00151600081518110611c05577f4e487b7100000000000000000000000000000000000000000000000000000000600052603260045260246000fd5b6020026020010151613abe565b611c608960c00151600181518110611c53577f4e487b7100000000000000000000000000000000000000000000000000000000600052603260045260246000fd5b6020026020010151613abe565b611cae8a60c00151600281518110611ca1577f4e487b7100000000000000000000000000000000000000000000000000000000600052603260045260246000fd5b6020026020010151613abe565b604051602001611cc5989796959493929190614d48565b604051602081830303815290604052613c6b565b9050600081604051602001611cee9190614e1d565b6040516020818303038152906040529050809350505050919050565b6000600560008473ffffffffffffffffffffffffffffffffffffffff1673ffffffffffffffffffffffffffffffffffffffff16815260200190815260200160002060008373ffffffffffffffffffffffffffffffffffffffff1673ffffffffffffffffffffffffffffffffffffffff16815260200190815260200160002060009054906101000a900460ff16905092915050565b600081600001549050919050565b6001816000016000828254019250508190555050565b60007f01ffc9a7000000000000000000000000000000000000000000000000000000007bffffffffffffffffffffffffffffffffffffffffffffffffffffffff1916827bffffffffffffffffffffffffffffffffffffffffffffffffffffffff1916149050919050565b60008073ffffffffffffffffffffffffffffffffffffffff166002600084815260200190815260200160002060009054906101000a900473ffffffffffffffffffffffffffffffffffffffff1673ffffffffffffffffffffffffffffffffffffffff1614159050919050565b600033905090565b816004600083815260200190815260200160002060006101000a81548173ffffffffffffffffffffffffffffffffffffffff021916908373ffffffffffffffffffffffffffffffffffffffff160217905550808273ffffffffffffffffffffffffffffffffffffffff16611f138361087c565b73ffffffffffffffffffffffffffffffffffffffff167f8c5be1e5ebec7d5bd14f71427d1e84f3dd0314c0f7b2291e5b200ac8c7c3b92560405160405180910390a45050565b6000611f6482611e2c565b611fa3576040517f08c379a0000000000000000000000000000000000000000000000000000000008152600401611f9a906150ca565b60405180910390fd5b6000611fae8361087c565b90508073ffffffffffffffffffffffffffffffffffffffff168473ffffffffffffffffffffffffffffffffffffffff16148061201d57508373ffffffffffffffffffffffffffffffffffffffff1661200584610505565b73ffffffffffffffffffffffffffffffffffffffff16145b8061202e575061202d8185611d0a565b5b91505092915050565b8273ffffffffffffffffffffffffffffffffffffffff166120578261087c565b73ffffffffffffffffffffffffffffffffffffffff16146120ad576040517f08c379a00000000000000000000000000000000000000000000000000000000081526004016120a49061504a565b60405180910390fd5b600073ffffffffffffffffffffffffffffffffffffffff168273ffffffffffffffffffffffffffffffffffffffff16141561211d576040517f08c379a00000000000000000000000000000000000000000000000000000000081526004016121149061508a565b60405180910390fd5b612128838383613e29565b612133600082611ea0565b6001600360008573ffffffffffffffffffffffffffffffffffffffff1673ffffffffffffffffffffffffffffffffffffffff1681526020019081526020016000206000828254612183919061542b565b925050819055506001600360008473ffffffffffffffffffffffffffffffffffffffff1673ffffffffffffffffffffffffffffffffffffffff16815260200190815260200160002060008282546121da919061534a565b92505081905550816002600083815260200190815260200160002060006101000a81548173ffffffffffffffffffffffffffffffffffffffff021916908373ffffffffffffffffffffffffffffffffffffffff160217905550808273ffffffffffffffffffffffffffffffffffffffff168473ffffffffffffffffffffffffffffffffffffffff167fddf252ad1be2c89b69c2b068fc378daa952ba7f163c4a11628f55a4df523b3ef60405160405180910390a4612299838383613e2e565b505050565b60007f000000000000000000000000000000000000000000000000000000000000000073ffffffffffffffffffffffffffffffffffffffff16634000aea07f000000000000000000000000000000000000000000000000000000000000000084866000604051602001612312929190614f7a565b6040516020818303038152906040526040518463ffffffff1660e01b815260040161233f93929190614ecf565b602060405180830381600087803b15801561235957600080fd5b505af115801561236d573d6000803e3d6000fd5b505050506040513d601f19601f82011682018060405250810190612391919061470f565b5060006123b4846000306006600089815260200190815260200160002054613e33565b9050600160066000868152602001908152602001600020546123d6919061534a565b60066000868152602001908152602001600020819055506123f78482613e6f565b91505092915050565b600061240c6007611d9e565b905060006008805490508361242191906155df565b90506000600367ffffffffffffffff811115612466577f4e487b7100000000000000000000000000000000000000000000000000000000600052604160045260246000fd5b6040519080825280602002602001820160405280156124945781602001602082028036833780820191505090505b5090506064612710856124a791906155df565b6124b191906153a0565b816000815181106124eb577f4e487b7100000000000000000000000000000000000000000000000000000000600052603260045260246000fd5b602002602001018181525050612710620f42408561250991906155df565b61251391906153a0565b8160018151811061254d577f4e487b7100000000000000000000000000000000000000000000000000000000600052603260045260246000fd5b602002602001018181525050620f42406305f5e1008561256d91906155df565b61257791906153a0565b816002815181106125b1577f4e487b7100000000000000000000000000000000000000000000000000000000600052603260045260246000fd5b6020026020010181815250506040518060e0016040528083815260200160088481548110612608577f4e487b7100000000000000000000000000000000000000000000000000000000600052603260045260246000fd5b906000526020600020906007020160010180546126249061551f565b80601f01602080910402602001604051908101604052809291908181526020018280546126509061551f565b801561269d5780601f106126725761010080835404028352916020019161269d565b820191906000526020600020905b81548152906001019060200180831161268057829003601f168201915b50505050508152602001600884815481106126e1577f4e487b7100000000000000000000000000000000000000000000000000000000600052603260045260246000fd5b906000526020600020906007020160020180546126fd9061551f565b80601f01602080910402602001604051908101604052809291908181526020018280546127299061551f565b80156127765780601f1061274b57610100808354040283529160200191612776565b820191906000526020600020905b81548152906001019060200180831161275957829003601f168201915b50505050508152602001600884815481106127ba577f4e487b7100000000000000000000000000000000000000000000000000000000600052603260045260246000fd5b906000526020600020906007020160030180546127d69061551f565b80601f01602080910402602001604051908101604052809291908181526020018280546128029061551f565b801561284f5780601f106128245761010080835404028352916020019161284f565b820191906000526020600020905b81548152906001019060200180831161283257829003601f168201915b5050505050815260200160088481548110612893577f4e487b7100000000000000000000000000000000000000000000000000000000600052603260045260246000fd5b906000526020600020906007020160040180546128af9061551f565b80601f01602080910402602001604051908101604052809291908181526020018280546128db9061551f565b80156129285780601f106128fd57610100808354040283529160200191612928565b820191906000526020600020905b81548152906001019060200180831161290b57829003601f168201915b505050505081526020018481526020018281525060096000858152602001908152602001600020600082015181600001556020820151816001019080519060200190612975929190614291565b506040820151816002019080519060200190612992929190614291565b5060608201518160030190805190602001906129af929190614291565b5060808201518160040190805190602001906129cc929190614291565b5060a0820151816005015560c08201518160060190805190602001906129f3929190614317565b50905050612a34600a600087815260200190815260200160002060009054906101000a900473ffffffffffffffffffffffffffffffffffffffff1684612ab3565b612a3e6007611dac565b7f10996d3735163ec820e09da0f6d7407380b7fa3f48b83fbc0e7216aa1d6d5df5600a600087815260200190815260200160002060009054906101000a900473ffffffffffffffffffffffffffffffffffffffff168484604051612aa493929190614f0d565b60405180910390a15050505050565b612acd828260405180602001604052806000815250613ea2565b5050565b8173ffffffffffffffffffffffffffffffffffffffff168373ffffffffffffffffffffffffffffffffffffffff161415612b40576040517f08c379a0000000000000000000000000000000000000000000000000000000008152600401612b37906150aa565b60405180910390fd5b80600560008573ffffffffffffffffffffffffffffffffffffffff1673ffffffffffffffffffffffffffffffffffffffff16815260200190815260200160002060008473ffffffffffffffffffffffffffffffffffffffff1673ffffffffffffffffffffffffffffffffffffffff16815260200190815260200160002060006101000a81548160ff0219169083151502179055508173ffffffffffffffffffffffffffffffffffffffff168373ffffffffffffffffffffffffffffffffffffffff167f17307eab39ab6107e8899845ad3d59bd9653f200f220920489ca2b5937696c3183604051612c319190614f44565b60405180910390a3505050565b6060806000600367ffffffffffffffff811115612c84577f4e487b7100000000000000000000000000000000000000000000000000000000600052604160045260246000fd5b604051908082528060200260200182016040528015612cb25781602001602082028036833780820191505090505b50905060008414156132d857600d855114612d02576040517f08c379a0000000000000000000000000000000000000000000000000000000008152600401612cf9906151ea565b60405180910390fd5b600d67ffffffffffffffff811115612d43577f4e487b7100000000000000000000000000000000000000000000000000000000600052604160045260246000fd5b604051908082528060200260200182016040528015612d715781602001602082028036833780820191505090505b50915060005b600d811015612de0576000838281518110612dbb577f4e487b7100000000000000000000000000000000000000000000000000000000600052603260045260246000fd5b6020026020010190151590811515815250508080612dd890615582565b915050612d77565b5060005b855181101561323257612e36868281518110612e29577f4e487b7100000000000000000000000000000000000000000000000000000000600052603260045260246000fd5b602002602001015161087c565b73ffffffffffffffffffffffffffffffffffffffff163373ffffffffffffffffffffffffffffffffffffffff1614612ea3576040517f08c379a0000000000000000000000000000000000000000000000000000000008152600401612e9a9061520a565b60405180910390fd5b600183600d600960008a8681518110612ee5577f4e487b7100000000000000000000000000000000000000000000000000000000600052603260045260246000fd5b6020026020010151815260200190815260200160002060000154612f0991906155df565b81518110612f40577f4e487b7100000000000000000000000000000000000000000000000000000000600052603260045260246000fd5b60200260200101901515908115158152505060096000878381518110612f8f577f4e487b7100000000000000000000000000000000000000000000000000000000600052603260045260246000fd5b60200260200101518152602001908152602001600020600601600081548110612fe1577f4e487b7100000000000000000000000000000000000000000000000000000000600052603260045260246000fd5b906000526020600020015482600081518110613026577f4e487b7100000000000000000000000000000000000000000000000000000000600052603260045260246000fd5b6020026020010181815161303a919061534a565b915081815250506009600087838151811061307e577f4e487b7100000000000000000000000000000000000000000000000000000000600052603260045260246000fd5b602002602001015181526020019081526020016000206006016001815481106130d0577f4e487b7100000000000000000000000000000000000000000000000000000000600052603260045260246000fd5b906000526020600020015482600181518110613115577f4e487b7100000000000000000000000000000000000000000000000000000000600052603260045260246000fd5b60200260200101818151613129919061534a565b915081815250506009600087838151811061316d577f4e487b7100000000000000000000000000000000000000000000000000000000600052603260045260246000fd5b602002602001015181526020019081526020016000206006016002815481106131bf577f4e487b7100000000000000000000000000000000000000000000000000000000600052603260045260246000fd5b906000526020600020015482600281518110613204577f4e487b7100000000000000000000000000000000000000000000000000000000600052603260045260246000fd5b60200260200101818151613218919061534a565b91508181525050808061322a90615582565b915050612de4565b5060005b600d8110156132d257828181518110613278577f4e487b7100000000000000000000000000000000000000000000000000000000600052603260045260246000fd5b60200260200101516132bf576040517f08c379a00000000000000000000000000000000000000000000000000000000081526004016132b69061500a565b60405180910390fd5b80806132ca90615582565b915050613236565b506138f8565b60018414156138f7576004855114613325576040517f08c379a000000000000000000000000000000000000000000000000000000000815260040161331c9061524a565b60405180910390fd5b600467ffffffffffffffff811115613366577f4e487b7100000000000000000000000000000000000000000000000000000000600052604160045260246000fd5b6040519080825280602002602001820160405280156133945781602001602082028036833780820191505090505b50915060005b60048110156134035760008382815181106133de577f4e487b7100000000000000000000000000000000000000000000000000000000600052603260045260246000fd5b60200260200101901515908115158152505080806133fb90615582565b91505061339a565b5060005b85518110156138555761345986828151811061344c577f4e487b7100000000000000000000000000000000000000000000000000000000600052603260045260246000fd5b602002602001015161087c565b73ffffffffffffffffffffffffffffffffffffffff163373ffffffffffffffffffffffffffffffffffffffff16146134c6576040517f08c379a00000000000000000000000000000000000000000000000000000000081526004016134bd9061520a565b60405180910390fd5b6001836004600960008a8681518110613508577f4e487b7100000000000000000000000000000000000000000000000000000000600052603260045260246000fd5b602002602001015181526020019081526020016000206000015461352c91906155df565b81518110613563577f4e487b7100000000000000000000000000000000000000000000000000000000600052603260045260246000fd5b602002602001019015159081151581525050600960008783815181106135b2577f4e487b7100000000000000000000000000000000000000000000000000000000600052603260045260246000fd5b60200260200101518152602001908152602001600020600601600081548110613604577f4e487b7100000000000000000000000000000000000000000000000000000000600052603260045260246000fd5b906000526020600020015482600081518110613649577f4e487b7100000000000000000000000000000000000000000000000000000000600052603260045260246000fd5b6020026020010181815161365d919061534a565b91508181525050600960008783815181106136a1577f4e487b7100000000000000000000000000000000000000000000000000000000600052603260045260246000fd5b602002602001015181526020019081526020016000206006016001815481106136f3577f4e487b7100000000000000000000000000000000000000000000000000000000600052603260045260246000fd5b906000526020600020015482600181518110613738577f4e487b7100000000000000000000000000000000000000000000000000000000600052603260045260246000fd5b6020026020010181815161374c919061534a565b9150818152505060096000878381518110613790577f4e487b7100000000000000000000000000000000000000000000000000000000600052603260045260246000fd5b602002602001015181526020019081526020016000206006016002815481106137e2577f4e487b7100000000000000000000000000000000000000000000000000000000600052603260045260246000fd5b906000526020600020015482600281518110613827577f4e487b7100000000000000000000000000000000000000000000000000000000600052603260045260246000fd5b6020026020010181815161383b919061534a565b91508181525050808061384d90615582565b915050613407565b5060005b60048110156138f55782818151811061389b577f4e487b7100000000000000000000000000000000000000000000000000000000600052603260045260246000fd5b60200260200101516138e2576040517f08c379a00000000000000000000000000000000000000000000000000000000081526004016138d99061500a565b60405180910390fd5b80806138ed90615582565b915050613859565b505b5b809250505092915050565b600061390e8261087c565b905061391c81600084613e29565b613927600083611ea0565b6001600360008373ffffffffffffffffffffffffffffffffffffffff1673ffffffffffffffffffffffffffffffffffffffff1681526020019081526020016000206000828254613977919061542b565b925050819055506002600083815260200190815260200160002060006101000a81549073ffffffffffffffffffffffffffffffffffffffff021916905581600073ffffffffffffffffffffffffffffffffffffffff168273ffffffffffffffffffffffffffffffffffffffff167fddf252ad1be2c89b69c2b068fc378daa952ba7f163c4a11628f55a4df523b3ef60405160405180910390a4613a1c81600084613e2e565b5050565b6000600d821015613a345760009050613a5d565b601a821015613a465760019050613a5d565b6027821015613a585760029050613a5d565b600390505b919050565b613a6d848484612037565b613a7984848484613efd565b613ab8576040517f08c379a0000000000000000000000000000000000000000000000000000000008152600401613aaf9061502a565b60405180910390fd5b50505050565b60606000821415613b06576040518060400160405280600181526020017f30000000000000000000000000000000000000000000000000000000000000008152509050613c66565b600082905060005b60008214613b38578080613b2190615582565b915050600a82613b3191906153a0565b9150613b0e565b60008167ffffffffffffffff811115613b7a577f4e487b7100000000000000000000000000000000000000000000000000000000600052604160045260246000fd5b6040519080825280601f01601f191660200182016040528015613bac5781602001600182028036833780820191505090505b5090505b60008514613c5f57600182613bc5919061542b565b9150600a85613bd491906155df565b6030613be0919061534a565b60f81b818381518110613c1c577f4e487b7100000000000000000000000000000000000000000000000000000000600052603260045260246000fd5b60200101907effffffffffffffffffffffffffffffffffffffffffffffffffffffffffffff1916908160001a905350600a85613c5891906153a0565b9450613bb0565b8093505050505b919050565b60606000825190506000811415613c945760405180602001604052806000815250915050613e24565b60006003600283613ca5919061534a565b613caf91906153a0565b6004613cbb91906153d1565b90506000602082613ccc919061534a565b67ffffffffffffffff811115613d0b577f4e487b7100000000000000000000000000000000000000000000000000000000600052604160045260246000fd5b6040519080825280601f01601f191660200182016040528015613d3d5781602001600182028036833780820191505090505b5090506000604051806060016040528060408152602001615e56604091399050600181016020830160005b86811015613de15760038101905062ffffff818a015116603f8160121c168401518060081b905060ff603f83600c1c1686015116810190508060081b905060ff603f8360061c1686015116810190508060081b905060ff603f831686015116810190508060e01b90508084526004840193505050613d68565b506003860660018114613dfb5760028114613e0b57613e16565b613d3d60f01b6002830352613e16565b603d60f81b60018303525b508484525050819450505050505b919050565b505050565b505050565b600084848484604051602001613e4c9493929190614fa3565b6040516020818303038152906040528051906020012060001c9050949350505050565b60008282604051602001613e84929190614d1c565b60405160208183030381529060405280519060200120905092915050565b613eac8383614094565b613eb96000848484613efd565b613ef8576040517f08c379a0000000000000000000000000000000000000000000000000000000008152600401613eef9061502a565b60405180910390fd5b505050565b6000613f1e8473ffffffffffffffffffffffffffffffffffffffff1661426e565b15614087578373ffffffffffffffffffffffffffffffffffffffff1663150b7a02613f47611e98565b8786866040518563ffffffff1660e01b8152600401613f699493929190614e5a565b602060405180830381600087803b158015613f8357600080fd5b505af1925050508015613fb457506040513d601f19601f82011682018060405250810190613fb1919061479d565b60015b614037573d8060008114613fe4576040519150601f19603f3d011682016040523d82523d6000602084013e613fe9565b606091505b5060008151141561402f576040517f08c379a00000000000000000000000000000000000000000000000000000000081526004016140269061502a565b60405180910390fd5b805181602001fd5b63150b7a0260e01b7bffffffffffffffffffffffffffffffffffffffffffffffffffffffff1916817bffffffffffffffffffffffffffffffffffffffffffffffffffffffff19161491505061408c565b600190505b949350505050565b600073ffffffffffffffffffffffffffffffffffffffff168273ffffffffffffffffffffffffffffffffffffffff161415614104576040517f08c379a00000000000000000000000000000000000000000000000000000000081526004016140fb9061516a565b60405180910390fd5b61410d81611e2c565b1561414d576040517f08c379a00000000000000000000000000000000000000000000000000000000081526004016141449061506a565b60405180910390fd5b61415960008383613e29565b6001600360008473ffffffffffffffffffffffffffffffffffffffff1673ffffffffffffffffffffffffffffffffffffffff16815260200190815260200160002060008282546141a9919061534a565b92505081905550816002600083815260200190815260200160002060006101000a81548173ffffffffffffffffffffffffffffffffffffffff021916908373ffffffffffffffffffffffffffffffffffffffff160217905550808273ffffffffffffffffffffffffffffffffffffffff16600073ffffffffffffffffffffffffffffffffffffffff167fddf252ad1be2c89b69c2b068fc378daa952ba7f163c4a11628f55a4df523b3ef60405160405180910390a461426a60008383613e2e565b5050565b6000808273ffffffffffffffffffffffffffffffffffffffff163b119050919050565b82805461429d9061551f565b90600052602060002090601f0160209004810192826142bf5760008555614306565b82601f106142d857805160ff1916838001178555614306565b82800160010185558215614306579182015b828111156143055782518255916020019190600101906142ea565b5b5090506143139190614364565b5090565b828054828255906000526020600020908101928215614353579160200282015b82811115614352578251825591602001919060010190614337565b5b5090506143609190614364565b5090565b5b8082111561437d576000816000905550600101614365565b5090565b600061439461438f846152aa565b615285565b905080838252602082019050828560208602820111156143b357600080fd5b60005b858110156143e357816143c988826144fd565b8452602084019350602083019250506001810190506143b6565b5050509392505050565b60006144006143fb846152d6565b615285565b90508281526020810184848401111561441857600080fd5b6144238482856154dd565b509392505050565b60008135905061443a81615de2565b92915050565b600082601f83011261445157600080fd5b8135614461848260208601614381565b91505092915050565b60008135905061447981615df9565b92915050565b60008151905061448e81615df9565b92915050565b6000813590506144a381615e10565b92915050565b6000813590506144b881615e27565b92915050565b6000815190506144cd81615e27565b92915050565b600082601f8301126144e457600080fd5b81356144f48482602086016143ed565b91505092915050565b60008135905061450c81615e3e565b92915050565b60008151905061452181615e3e565b92915050565b60006020828403121561453957600080fd5b60006145478482850161442b565b91505092915050565b6000806040838503121561456357600080fd5b60006145718582860161442b565b92505060206145828582860161442b565b9150509250929050565b6000806000606084860312156145a157600080fd5b60006145af8682870161442b565b93505060206145c08682870161442b565b92505060406145d1868287016144fd565b9150509250925092565b600080600080608085870312156145f157600080fd5b60006145ff8782880161442b565b94505060206146108782880161442b565b9350506040614621878288016144fd565b925050606085013567ffffffffffffffff81111561463e57600080fd5b61464a878288016144d3565b91505092959194509250565b6000806040838503121561466957600080fd5b60006146778582860161442b565b92505060206146888582860161446a565b9150509250929050565b600080604083850312156146a557600080fd5b60006146b38582860161442b565b92505060206146c4858286016144fd565b9150509250929050565b6000602082840312156146e057600080fd5b600082013567ffffffffffffffff8111156146fa57600080fd5b61470684828501614440565b91505092915050565b60006020828403121561472157600080fd5b600061472f8482850161447f565b91505092915050565b6000806040838503121561474b57600080fd5b600061475985828601614494565b925050602061476a858286016144fd565b9150509250929050565b60006020828403121561478657600080fd5b6000614794848285016144a9565b91505092915050565b6000602082840312156147af57600080fd5b60006147bd848285016144be565b91505092915050565b6000602082840312156147d857600080fd5b60006147e6848285016144fd565b91505092915050565b60006020828403121561480157600080fd5b600061480f84828501614512565b91505092915050565b6148218161545f565b82525050565b61483081615471565b82525050565b61483f8161547d565b82525050565b6148566148518261547d565b6155cb565b82525050565b600061486782615307565b614871818561531d565b93506148818185602086016154ec565b61488a816156cc565b840191505092915050565b60006148a082615312565b6148aa818561532e565b93506148ba8185602086016154ec565b6148c3816156cc565b840191505092915050565b60006148d982615312565b6148e3818561533f565b93506148f38185602086016154ec565b80840191505092915050565b600061490c60088361532e565b9150614917826156dd565b602082019050919050565b600061492f60118361533f565b915061493a82615706565b601182019050919050565b600061495260058361533f565b915061495d8261572f565b600582019050919050565b600061497560328361532e565b915061498082615758565b604082019050919050565b600061499860258361532e565b91506149a3826157a7565b604082019050919050565b60006149bb601c8361532e565b91506149c6826157f6565b602082019050919050565b60006149de60248361532e565b91506149e98261581f565b604082019050919050565b6000614a0160198361532e565b9150614a0c8261586e565b602082019050919050565b6000614a24602c8361532e565b9150614a2f82615897565b604082019050919050565b6000614a4760298361533f565b9150614a52826158e6565b602982019050919050565b6000614a6a60358361533f565b9150614a7582615935565b603582019050919050565b6000614a8d602e8361533f565b9150614a9882615984565b602e82019050919050565b6000614ab0600f8361532e565b9150614abb826159d3565b602082019050919050565b6000614ad360388361532e565b9150614ade826159fc565b604082019050919050565b6000614af6602a8361532e565b9150614b0182615a4b565b604082019050919050565b6000614b1960298361532e565b9150614b2482615a9a565b604082019050919050565b6000614b3c60288361533f565b9150614b4782615ae9565b602882019050919050565b6000614b5f60208361532e565b9150614b6a82615b38565b602082019050919050565b6000614b82602c8361532e565b9150614b8d82615b61565b604082019050919050565b6000614ba560298361533f565b9150614bb082615bb0565b602982019050919050565b6000614bc8600a8361533f565b9150614bd382615bff565b600a82019050919050565b6000614beb601f8361532e565b9150614bf682615c28565b602082019050919050565b6000614c0e60218361532e565b9150614c1982615c51565b604082019050919050565b6000614c3160298361533f565b9150614c3c82615ca0565b602982019050919050565b6000614c5460068361532e565b9150614c5f82615cef565b602082019050919050565b6000614c77601d8361533f565b9150614c8282615d18565b601d82019050919050565b6000614c9a60098361532e565b9150614ca582615d41565b602082019050919050565b6000614cbd60318361532e565b9150614cc882615d6a565b604082019050919050565b6000614ce060058361532e565b9150614ceb82615db9565b602082019050919050565b614cff816154d3565b82525050565b614d16614d11826154d3565b6155d5565b82525050565b6000614d288285614845565b602082019150614d388284614d05565b6020820191508190509392505050565b6000614d5382614bbb565b9150614d5f828b6148ce565b9150614d6a82614a80565b9150614d76828a6148ce565b9150614d8182614922565b9150614d8d82896148ce565b9150614d9882614a5d565b9150614da482886148ce565b9150614daf82614b2f565b9150614dbb82876148ce565b9150614dc682614c24565b9150614dd282866148ce565b9150614ddd82614a3a565b9150614de982856148ce565b9150614df482614b98565b9150614e0082846148ce565b9150614e0b82614945565b91508190509998505050505050505050565b6000614e2882614c6a565b9150614e3482846148ce565b915081905092915050565b6000602082019050614e546000830184614818565b92915050565b6000608082019050614e6f6000830187614818565b614e7c6020830186614818565b614e896040830185614cf6565b8181036060830152614e9b818461485c565b905095945050505050565b6000604082019050614ebb6000830185614818565b614ec86020830184614cf6565b9392505050565b6000606082019050614ee46000830186614818565b614ef16020830185614cf6565b8181036040830152614f03818461485c565b9050949350505050565b6000606082019050614f226000830186614818565b614f2f6020830185614cf6565b614f3c6040830184614cf6565b949350505050565b6000602082019050614f596000830184614827565b92915050565b6000602082019050614f746000830184614836565b92915050565b6000604082019050614f8f6000830185614836565b614f9c6020830184614cf6565b9392505050565b6000608082019050614fb86000830187614836565b614fc56020830186614cf6565b614fd26040830185614818565b614fdf6060830184614cf6565b95945050505050565b600060208201905081810360008301526150028184614895565b905092915050565b60006020820190508181036000830152615023816148ff565b9050919050565b6000602082019050818103600083015261504381614968565b9050919050565b600060208201905081810360008301526150638161498b565b9050919050565b60006020820190508181036000830152615083816149ae565b9050919050565b600060208201905081810360008301526150a3816149d1565b9050919050565b600060208201905081810360008301526150c3816149f4565b9050919050565b600060208201905081810360008301526150e381614a17565b9050919050565b6000602082019050818103600083015261510381614aa3565b9050919050565b6000602082019050818103600083015261512381614ac6565b9050919050565b6000602082019050818103600083015261514381614ae9565b9050919050565b6000602082019050818103600083015261516381614b0c565b9050919050565b6000602082019050818103600083015261518381614b52565b9050919050565b600060208201905081810360008301526151a381614b75565b9050919050565b600060208201905081810360008301526151c381614bde565b9050919050565b600060208201905081810360008301526151e381614c01565b9050919050565b6000602082019050818103600083015261520381614c47565b9050919050565b6000602082019050818103600083015261522381614c8d565b9050919050565b6000602082019050818103600083015261524381614cb0565b9050919050565b6000602082019050818103600083015261526381614cd3565b9050919050565b600060208201905061527f6000830184614cf6565b92915050565b600061528f6152a0565b905061529b8282615551565b919050565b6000604051905090565b600067ffffffffffffffff8211156152c5576152c461569d565b5b602082029050602081019050919050565b600067ffffffffffffffff8211156152f1576152f061569d565b5b6152fa826156cc565b9050602081019050919050565b600081519050919050565b600081519050919050565b600082825260208201905092915050565b600082825260208201905092915050565b600081905092915050565b6000615355826154d3565b9150615360836154d3565b9250827fffffffffffffffffffffffffffffffffffffffffffffffffffffffffffffffff0382111561539557615394615610565b5b828201905092915050565b60006153ab826154d3565b91506153b6836154d3565b9250826153c6576153c561563f565b5b828204905092915050565b60006153dc826154d3565b91506153e7836154d3565b9250817fffffffffffffffffffffffffffffffffffffffffffffffffffffffffffffffff04831182151516156154205761541f615610565b5b828202905092915050565b6000615436826154d3565b9150615441836154d3565b92508282101561545457615453615610565b5b828203905092915050565b600061546a826154b3565b9050919050565b60008115159050919050565b6000819050919050565b60007fffffffff0000000000000000000000000000000000000000000000000000000082169050919050565b600073ffffffffffffffffffffffffffffffffffffffff82169050919050565b6000819050919050565b82818337600083830152505050565b60005b8381101561550a5780820151818401526020810190506154ef565b83811115615519576000848401525b50505050565b6000600282049050600182168061553757607f821691505b6020821081141561554b5761554a61566e565b5b50919050565b61555a826156cc565b810181811067ffffffffffffffff821117156155795761557861569d565b5b80604052505050565b600061558d826154d3565b91507fffffffffffffffffffffffffffffffffffffffffffffffffffffffffffffffff8214156155c0576155bf615610565b5b600182019050919050565b6000819050919050565b6000819050919050565b60006155ea826154d3565b91506155f5836154d3565b9250826156055761560461563f565b5b828206905092915050565b7f4e487b7100000000000000000000000000000000000000000000000000000000600052601160045260246000fd5b7f4e487b7100000000000000000000000000000000000000000000000000000000600052601260045260246000fd5b7f4e487b7100000000000000000000000000000000000000000000000000000000600052602260045260246000fd5b7f4e487b7100000000000000000000000000000000000000000000000000000000600052604160045260246000fd5b6000601f19601f8301169050919050565b7f4e6f742046756c6c000000000000000000000000000000000000000000000000600082015250565b7f222c202263617264496e646578223a2022000000000000000000000000000000600082015250565b7f227d205d7d000000000000000000000000000000000000000000000000000000600082015250565b7f4552433732313a207472616e7366657220746f206e6f6e20455243373231526560008201527f63656976657220696d706c656d656e7465720000000000000000000000000000602082015250565b7f4552433732313a207472616e736665722066726f6d20696e636f72726563742060008201527f6f776e6572000000000000000000000000000000000000000000000000000000602082015250565b7f4552433732313a20746f6b656e20616c7265616479206d696e74656400000000600082015250565b7f4552433732313a207472616e7366657220746f20746865207a65726f2061646460008201527f7265737300000000000000000000000000000000000000000000000000000000602082015250565b7f4552433732313a20617070726f766520746f2063616c6c657200000000000000600082015250565b7f4552433732313a206f70657261746f7220717565727920666f72206e6f6e657860008201527f697374656e7420746f6b656e0000000000000000000000000000000000000000602082015250565b7f227d2c207b202274726169745f74797065223a202254726169742032222c202260008201527f76616c7565223a20220000000000000000000000000000000000000000000000602082015250565b7f222c202261747472696275746573223a205b207b202274726169745f7479706560008201527f223a202253756974222c202276616c7565223a20220000000000000000000000602082015250565b7f222c20226465736372697074696f6e223a2022486f757365206f66204361726460008201527f73222c2022696d616765223a2022000000000000000000000000000000000000602082015250565b7f4e6f7420656e6f756768204c494e4b0000000000000000000000000000000000600082015250565b7f4552433732313a20617070726f76652063616c6c6572206973206e6f74206f7760008201527f6e6572206e6f7220617070726f76656420666f7220616c6c0000000000000000602082015250565b7f4552433732313a2062616c616e636520717565727920666f7220746865207a6560008201527f726f206164647265737300000000000000000000000000000000000000000000602082015250565b7f4552433732313a206f776e657220717565727920666f72206e6f6e657869737460008201527f656e7420746f6b656e0000000000000000000000000000000000000000000000602082015250565b7f227d2c207b202274726169745f74797065223a20224e756d626572222c20227660008201527f616c7565223a2022000000000000000000000000000000000000000000000000602082015250565b7f4552433732313a206d696e7420746f20746865207a65726f2061646472657373600082015250565b7f4552433732313a20617070726f76656420717565727920666f72206e6f6e657860008201527f697374656e7420746f6b656e0000000000000000000000000000000000000000602082015250565b7f227d2c207b202274726169745f74797065223a202254726169742033222c202260008201527f76616c7565223a20220000000000000000000000000000000000000000000000602082015250565b7f7b226e616d65223a202200000000000000000000000000000000000000000000600082015250565b7f4f6e6c7920565246436f6f7264696e61746f722063616e2066756c66696c6c00600082015250565b7f4552433732313a20617070726f76616c20746f2063757272656e74206f776e6560008201527f7200000000000000000000000000000000000000000000000000000000000000602082015250565b7f227d2c207b202274726169745f74797065223a202254726169742031222c202260008201527f76616c7565223a20220000000000000000000000000000000000000000000000602082015250565b7f4e6f742031330000000000000000000000000000000000000000000000000000600082015250565b7f646174613a6170706c69636174696f6e2f6a736f6e3b6261736536342c000000600082015250565b7f4e6f74206f776e65720000000000000000000000000000000000000000000000600082015250565b7f4552433732313a207472616e736665722063616c6c6572206973206e6f74206f60008201527f776e6572206e6f7220617070726f766564000000000000000000000000000000602082015250565b7f4e6f742034000000000000000000000000000000000000000000000000000000600082015250565b615deb8161545f565b8114615df657600080fd5b50565b615e0281615471565b8114615e0d57600080fd5b50565b615e198161547d565b8114615e2457600080fd5b50565b615e3081615487565b8114615e3b57600080fd5b50565b615e47816154d3565b8114615e5257600080fd5b5056fe4142434445464748494a4b4c4d4e4f505152535455565758595a6162636465666768696a6b6c6d6e6f707172737475767778797a303132333435363738392b2fa26469706673582212201e3af4e9ea9eb2611fe21fcc9395e04b792aa765966a4f54f60af901665776d264736f6c63430008040033",
  "linkReferences": {},
  "deployedLinkReferences": {}
}